{
  "_format": "hh-sol-artifact-1",
  "contractName": "SwapToken",
  "sourceName": "contracts/SwapToken.sol",
  "abi": [
    {
      "inputs": [],
      "stateMutability": "nonpayable",
      "type": "constructor"
    },
    {
      "anonymous": false,
      "inputs": [
        {
          "indexed": false,
          "internalType": "uint256",
          "name": "swapId",
          "type": "uint256"
        }
      ],
      "name": "SwapAccepted",
      "type": "event"
    },
    {
      "anonymous": false,
      "inputs": [
        {
          "indexed": false,
          "internalType": "uint256",
          "name": "swapId",
          "type": "uint256"
        }
      ],
      "name": "SwapCancelled",
      "type": "event"
    },
    {
      "anonymous": false,
      "inputs": [
        {
          "indexed": false,
          "internalType": "uint256",
          "name": "swapId",
          "type": "uint256"
        },
        {
          "indexed": false,
          "internalType": "address",
          "name": "owner",
          "type": "address"
        },
        {
          "indexed": false,
          "internalType": "address[]",
          "name": "ownerTokens",
          "type": "address[]"
        },
        {
          "indexed": false,
          "internalType": "bytes32[]",
          "name": "ownerTokenIds",
          "type": "bytes32[]"
        },
        {
          "indexed": false,
          "internalType": "address",
          "name": "target",
          "type": "address"
        },
        {
          "indexed": false,
          "internalType": "address[]",
          "name": "targetAccountTokens",
          "type": "address[]"
        },
        {
          "indexed": false,
          "internalType": "bytes32[]",
          "name": "targetAccountTokenIds",
          "type": "bytes32[]"
        }
      ],
      "name": "SwapCreated",
      "type": "event"
    },
    {
      "inputs": [
        {
          "internalType": "uint256",
          "name": "_swapId",
          "type": "uint256"
        }
      ],
      "name": "acceptOffer",
      "outputs": [],
      "stateMutability": "nonpayable",
      "type": "function"
    },
    {
      "inputs": [
        {
          "internalType": "uint256",
          "name": "_swapId",
          "type": "uint256"
        }
      ],
      "name": "cancelOffer",
      "outputs": [],
      "stateMutability": "nonpayable",
      "type": "function"
    },
    {
      "inputs": [
        {
          "internalType": "string",
          "name": "_description",
          "type": "string"
        },
        {
          "internalType": "address",
          "name": "targetAddress",
          "type": "address"
        },
        {
          "internalType": "address[]",
          "name": "_ownerTokens",
          "type": "address[]"
        },
        {
          "internalType": "bytes32[]",
          "name": "_ownerTokenIds",
          "type": "bytes32[]"
        },
        {
          "internalType": "address[]",
          "name": "_targetAccountTokens",
          "type": "address[]"
        },
        {
          "internalType": "bytes32[]",
          "name": "_targetAccountTokenIds",
          "type": "bytes32[]"
        }
      ],
      "name": "createSwap",
      "outputs": [
        {
          "internalType": "uint256",
          "name": "",
          "type": "uint256"
        }
      ],
      "stateMutability": "nonpayable",
      "type": "function"
    },
    {
      "inputs": [
        {
          "internalType": "address",
          "name": "_user",
          "type": "address"
        }
      ],
      "name": "getSwaps",
      "outputs": [
        {
          "components": [
            {
              "internalType": "enum SwapToken.Status",
              "name": "status",
              "type": "uint8"
            },
            {
              "internalType": "string",
              "name": "description",
              "type": "string"
            },
            {
              "internalType": "address",
              "name": "owner",
              "type": "address"
            },
            {
              "internalType": "address",
              "name": "target",
              "type": "address"
            },
            {
              "internalType": "address[]",
              "name": "ownerTokens",
              "type": "address[]"
            },
            {
              "internalType": "bytes32[]",
              "name": "ownerTokenIds",
              "type": "bytes32[]"
            },
            {
              "internalType": "address[]",
              "name": "targetAccountTokens",
              "type": "address[]"
            },
            {
              "internalType": "bytes32[]",
              "name": "targetAccountTokenIds",
              "type": "bytes32[]"
            },
            {
              "internalType": "uint256",
              "name": "swapId",
              "type": "uint256"
            }
          ],
          "internalType": "struct SwapToken.Swap[]",
          "name": "",
          "type": "tuple[]"
        }
      ],
      "stateMutability": "view",
      "type": "function"
    },
    {
      "inputs": [],
      "name": "swapCount",
      "outputs": [
        {
          "internalType": "uint256",
          "name": "",
          "type": "uint256"
        }
      ],
      "stateMutability": "view",
      "type": "function"
    },
    {
      "inputs": [
        {
          "internalType": "uint256",
          "name": "",
          "type": "uint256"
        }
      ],
      "name": "swaps",
      "outputs": [
        {
          "internalType": "enum SwapToken.Status",
          "name": "status",
          "type": "uint8"
        },
        {
          "internalType": "string",
          "name": "description",
          "type": "string"
        },
        {
          "internalType": "address",
          "name": "owner",
          "type": "address"
        },
        {
          "internalType": "address",
          "name": "target",
          "type": "address"
        },
        {
          "internalType": "uint256",
          "name": "swapId",
          "type": "uint256"
        }
      ],
      "stateMutability": "view",
      "type": "function"
    },
    {
      "inputs": [
        {
          "internalType": "address",
          "name": "",
          "type": "address"
        }
      ],
      "name": "userSwapCount",
      "outputs": [
        {
          "internalType": "uint256",
          "name": "",
          "type": "uint256"
        }
      ],
      "stateMutability": "view",
      "type": "function"
    },
    {
      "inputs": [
        {
          "internalType": "address",
          "name": "",
          "type": "address"
        },
        {
          "internalType": "uint256",
          "name": "",
          "type": "uint256"
        }
      ],
      "name": "userSwaps",
      "outputs": [
        {
          "internalType": "enum SwapToken.Status",
          "name": "status",
          "type": "uint8"
        },
        {
          "internalType": "string",
          "name": "description",
          "type": "string"
        },
        {
          "internalType": "address",
          "name": "owner",
          "type": "address"
        },
        {
          "internalType": "address",
          "name": "target",
          "type": "address"
        },
        {
          "internalType": "uint256",
          "name": "swapId",
          "type": "uint256"
        }
      ],
      "stateMutability": "view",
      "type": "function"
    }
  ],
  "bytecode": "0x608060405234801561001057600080fd5b506117ca806100206000396000f3fe608060405234801561001057600080fd5b50600436106100885760003560e01c8063c815729d1161005b578063c815729d14610111578063ef706adf14610126578063f09c582914610139578063ffa2d7161461014c57600080fd5b806321c616da1461008d5780632eff0d9e146100b6578063543aa9fe146100cd57806387d2d3e6146100ed575b600080fd5b6100a061009b366004611014565b61015f565b6040516100ad9190611128565b60405180910390f35b6100bf60005481565b6040519081526020016100ad565b6100bf6100db366004611014565b60036020526000908152604090205481565b6101006100fb36600461124d565b61043b565b6040516100ad959493929190611277565b61012461011f3660046112bb565b610524565b005b6101246101343660046112bb565b610980565b6101006101473660046112bb565b610a96565b6100bf61015a36600461147c565b610abd565b6001600160a01b0381166000908152600260209081526040808320805482518185028101850190935280835260609492939192909184015b8282101561043057600084815260209020604080516101208101909152600984029091018054829060ff1660028111156101d3576101d3611036565b60028111156101e4576101e4611036565b81526020016001820180546101f89061155d565b80601f01602080910402602001604051908101604052809291908181526020018280546102249061155d565b80156102715780601f1061024657610100808354040283529160200191610271565b820191906000526020600020905b81548152906001019060200180831161025457829003601f168201915b505050918352505060028201546001600160a01b03908116602080840191909152600384015490911660408084019190915260048401805482518185028101850190935280835260609094019391929091908301828280156102fc57602002820191906000526020600020905b81546001600160a01b031681526001909101906020018083116102de575b505050505081526020016005820180548060200260200160405190810160405280929190818152602001828054801561035457602002820191906000526020600020905b815481526020019060010190808311610340575b50505050508152602001600682018054806020026020016040519081016040528092919081815260200182805480156103b657602002820191906000526020600020905b81546001600160a01b03168152600190910190602001808311610398575b505050505081526020016007820180548060200260200160405190810160405280929190818152602001828054801561040e57602002820191906000526020600020905b8154815260200190600101908083116103fa575b5050505050815260200160088201548152505081526020019060010190610197565b505050509050919050565b6002602052816000526040600020818154811061045757600080fd5b60009182526020909120600990910201805460018201805460ff90921694509192506104829061155d565b80601f01602080910402602001604051908101604052809291908181526020018280546104ae9061155d565b80156104fb5780601f106104d0576101008083540402835291602001916104fb565b820191906000526020600020905b8154815290600101906020018083116104de57829003601f168201915b505050506002830154600384015460089094015492936001600160a01b03918216939116915085565b60008181526001602052604090206003015481906001600160a01b0316331461058a5760405162461bcd60e51b815260206004820152601360248201527213db9b1e481d185c99d95d08105b1b1bddd959606a1b60448201526064015b60405180910390fd5b60008281526001602052604081205460ff1660028111156105ad576105ad611036565b146105ed5760405162461bcd60e51b815260206004820152601060248201526f43616e277420416363657074206e6f7760801b6044820152606401610581565b600082815260016020908152604080832060038101546002820154600690920180548451818702810187019095528085526001600160a01b03928316969290931694919392909183018282801561066d57602002820191906000526020600020905b81546001600160a01b0316815260019091019060200180831161064f575b505050505090506000600160008781526020019081526020016000206007018054806020026020016040519081016040528092919081815260200182805480156106d657602002820191906000526020600020905b8154815260200190600101908083116106c2575b5050505050905060005b8251811015610793578281815181106106fb576106fb611597565b60200260200101516001600160a01b031663511b6952868685858151811061072557610725611597565b602002602001015160016040518563ffffffff1660e01b815260040161074e94939291906115ad565b600060405180830381600087803b15801561076857600080fd5b505af115801561077c573d6000803e3d6000fd5b50505050808061078b906115e5565b9150506106e0565b506000868152600160209081526040808320600401805482518185028101850190935280835291929091908301828280156107f757602002820191906000526020600020905b81546001600160a01b031681526001909101906020018083116107d9575b5050505050905060006001600089815260200190815260200160002060050180548060200260200160405190810160405280929190818152602001828054801561086057602002820191906000526020600020905b81548152602001906001019080831161084c575b5050505050905081516000146109285760005b82518110156109265782818151811061088e5761088e611597565b60200260200101516001600160a01b031663511b695287898585815181106108b8576108b8611597565b602002602001015160016040518563ffffffff1660e01b81526004016108e194939291906115ad565b600060405180830381600087803b1580156108fb57600080fd5b505af115801561090f573d6000803e3d6000fd5b50505050808061091e906115e5565b915050610873565b505b600088815260016020818152604092839020805460ff191690921790915590518981527f7080e652b0056fb27597071d591828292afd96fd17bc428ff26dfcca4acc5230910160405180910390a15050505050505050565b60008181526001602052604090206003015481906001600160a01b031633146109e15760405162461bcd60e51b815260206004820152601360248201527213db9b1e481d185c99d95d08105b1b1bddd959606a1b6044820152606401610581565b60008281526001602052604081205460ff166002811115610a0457610a04611036565b14610a455760405162461bcd60e51b815260206004820152601160248201527043616e27742043616e63656c6c206e6f7760781b6044820152606401610581565b600082815260016020908152604091829020805460ff1916600217905590518381527ff6b6b4f7a13f02512c1b3aa8dcc4a07d7775a6a4becbd439efcbd37c5408e67f910160405180910390a15050565b60016020819052600091825260409091208054918101805460ff909316926104829061155d565b60008351855114610b275760405162461bcd60e51b815260206004820152602e60248201527f5f6f776e6572546f6b656e732073686f756c6420626520657175616c20746f2060448201526d5f6f776e6572546f6b656e49647360901b6064820152608401610581565b8451600003610b785760405162461bcd60e51b815260206004820181905260248201527f5f6f776e6572546f6b656e732073686f756c64206e6f7420626520656d7074796044820152606401610581565b8151835114610bef5760405162461bcd60e51b815260206004820152603e60248201527f5f7461726765744163636f756e74546f6b656e732073686f756c64206265206560448201527f7175616c20746f205f7461726765744163636f756e74546f6b656e49647300006064820152608401610581565b8251600003610c515760405162461bcd60e51b815260206004820152602860248201527f5f7461726765744163636f756e74546f6b656e732073686f756c64206e6f7420604482015267626520656d70747960c01b6064820152608401610581565b60008054604080516101208101825283815260208082018c905233828401526001600160a01b038b166060830152608082018a905260a0820189905260c0820188905260e08201879052610100820184905283855260019081905291909320835181549394938493839160ff191690836002811115610cd257610cd2611036565b021790555060208201516001820190610ceb908261165b565b5060408201516002820180546001600160a01b039283166001600160a01b031991821617909155606084015160038401805491909316911617905560808201518051610d41916004840191602090910190610f43565b5060a08201518051610d5d916005840191602090910190610fa8565b5060c08201518051610d79916006840191602090910190610f43565b5060e08201518051610d95916007840191602090910190610fa8565b5061010091909101516008909101553360009081526002602081815260408320805460018181018355918552919093208451600990920201805485949193849260ff1990921691908490811115610dee57610dee611036565b021790555060208201516001820190610e07908261165b565b5060408201516002820180546001600160a01b039283166001600160a01b031991821617909155606084015160038401805491909316911617905560808201518051610e5d916004840191602090910190610f43565b5060a08201518051610e79916005840191602090910190610fa8565b5060c08201518051610e95916006840191602090910190610f43565b5060e08201518051610eb1916007840191602090910190610fa8565b506101009190910151600890910155600080549080610ecf836115e5565b9091555050336000908152600360205260408120805491610eef836115e5565b91905055507f84b2614528f809fa32824e9a3d65f1ce518b3278681518c5c10557f83b4901f3823389898c8a8a604051610f2f979695949392919061171b565b60405180910390a150979650505050505050565b828054828255906000526020600020908101928215610f98579160200282015b82811115610f9857825182546001600160a01b0319166001600160a01b03909116178255602090920191600190910190610f63565b50610fa4929150610fe3565b5090565b828054828255906000526020600020908101928215610f98579160200282015b82811115610f98578251825591602001919060010190610fc8565b5b80821115610fa45760008155600101610fe4565b80356001600160a01b038116811461100f57600080fd5b919050565b60006020828403121561102657600080fd5b61102f82610ff8565b9392505050565b634e487b7160e01b600052602160045260246000fd5b6003811061106a57634e487b7160e01b600052602160045260246000fd5b9052565b6000815180845260005b8181101561109457602081850181015186830182015201611078565b506000602082860101526020601f19601f83011685010191505092915050565b600081518084526020808501945080840160005b838110156110ed5781516001600160a01b0316875295820195908201906001016110c8565b509495945050505050565b600081518084526020808501945080840160005b838110156110ed5781518752958201959082019060010161110c565b60006020808301818452808551808352604092508286019150828160051b87010184880160005b8381101561123f57603f19898403018552815161012061117085835161104c565b88820151818a8701526111858287018261106e565b915050878201516111a0898701826001600160a01b03169052565b506060828101516001600160a01b031690860152608080830151868303828801526111cb83826110b4565b9250505060a080830151868303828801526111e683826110f8565b9250505060c0808301518683038288015261120183826110b4565b9250505060e0808301518683038288015261121c83826110f8565b61010094850151979094019690965250509487019492509086019060010161114f565b509098975050505050505050565b6000806040838503121561126057600080fd5b61126983610ff8565b946020939093013593505050565b611281818761104c565b60a06020820152600061129760a083018761106e565b6001600160a01b039586166040840152939094166060820152608001529392505050565b6000602082840312156112cd57600080fd5b5035919050565b634e487b7160e01b600052604160045260246000fd5b604051601f8201601f1916810167ffffffffffffffff81118282101715611313576113136112d4565b604052919050565b600082601f83011261132c57600080fd5b813567ffffffffffffffff811115611346576113466112d4565b611359601f8201601f19166020016112ea565b81815284602083860101111561136e57600080fd5b816020850160208301376000918101602001919091529392505050565b600067ffffffffffffffff8211156113a5576113a56112d4565b5060051b60200190565b600082601f8301126113c057600080fd5b813560206113d56113d08361138b565b6112ea565b82815260059290921b840181019181810190868411156113f457600080fd5b8286015b848110156114165761140981610ff8565b83529183019183016113f8565b509695505050505050565b600082601f83011261143257600080fd5b813560206114426113d08361138b565b82815260059290921b8401810191818101908684111561146157600080fd5b8286015b848110156114165780358352918301918301611465565b60008060008060008060c0878903121561149557600080fd5b863567ffffffffffffffff808211156114ad57600080fd5b6114b98a838b0161131b565b97506114c760208a01610ff8565b965060408901359150808211156114dd57600080fd5b6114e98a838b016113af565b955060608901359150808211156114ff57600080fd5b61150b8a838b01611421565b9450608089013591508082111561152157600080fd5b61152d8a838b016113af565b935060a089013591508082111561154357600080fd5b5061155089828a01611421565b9150509295509295509295565b600181811c9082168061157157607f821691505b60208210810361159157634e487b7160e01b600052602260045260246000fd5b50919050565b634e487b7160e01b600052603260045260246000fd5b6001600160a01b0394851681529290931660208301526040820152901515606082015260a06080820181905260009082015260c00190565b60006001820161160557634e487b7160e01b600052601160045260246000fd5b5060010190565b601f82111561165657600081815260208120601f850160051c810160208610156116335750805b601f850160051c820191505b818110156116525782815560010161163f565b5050505b505050565b815167ffffffffffffffff811115611675576116756112d4565b61168981611683845461155d565b8461160c565b602080601f8311600181146116be57600084156116a65750858301515b600019600386901b1c1916600185901b178555611652565b600085815260208120601f198616915b828110156116ed578886015182559484019460019091019084016116ce565b508582101561170b5787850151600019600388901b60f8161c191681555b5050505050600190811b01905550565b878152600060018060a01b03808916602084015260e0604084015261174360e08401896110b4565b838103606085015261175581896110f8565b9050818716608085015283810360a085015261177181876110b4565b91505082810360c084015261178681856110f8565b9a995050505050505050505056fea26469706673582212209f6d4b3e6f988b914307ac4b3d7f1e0d729f35a6e8c1ac6ce413ab58254469e564736f6c63430008140033",
  "linkReferences": {},
  "deployedLinkReferences": {}
}