{
  "_format": "hh-sol-artifact-1",
  "contractName": "SwapToken",
  "sourceName": "contracts/SwapToken.sol",
  "abi": [
    {
      "inputs": [],
      "stateMutability": "nonpayable",
      "type": "constructor"
    },
    {
      "anonymous": false,
      "inputs": [
        {
          "indexed": false,
          "internalType": "uint256",
          "name": "swapId",
          "type": "uint256"
        }
      ],
      "name": "SwapAccepted",
      "type": "event"
    },
    {
      "anonymous": false,
      "inputs": [
        {
          "indexed": false,
          "internalType": "uint256",
          "name": "swapId",
          "type": "uint256"
        }
      ],
      "name": "SwapCancelled",
      "type": "event"
    },
    {
      "anonymous": false,
      "inputs": [
        {
          "indexed": false,
          "internalType": "uint256",
          "name": "swapId",
          "type": "uint256"
        },
        {
          "indexed": false,
          "internalType": "address",
          "name": "owner",
          "type": "address"
        }
      ],
      "name": "SwapCreated",
      "type": "event"
    },
    {
      "inputs": [
        {
          "internalType": "uint256",
          "name": "_swapId",
          "type": "uint256"
        }
      ],
      "name": "acceptOffer",
      "outputs": [],
      "stateMutability": "nonpayable",
      "type": "function"
    },
    {
      "inputs": [
        {
          "internalType": "uint256",
          "name": "_swapId",
          "type": "uint256"
        }
      ],
      "name": "cancelOffer",
      "outputs": [],
      "stateMutability": "nonpayable",
      "type": "function"
    },
    {
      "inputs": [
        {
          "internalType": "string",
          "name": "_description",
          "type": "string"
        },
        {
          "internalType": "address",
          "name": "targetAddress",
          "type": "address"
        },
        {
          "internalType": "address[]",
          "name": "_ownerTokens",
          "type": "address[]"
        },
        {
          "internalType": "bytes32[]",
          "name": "_ownerTokenIds",
          "type": "bytes32[]"
        },
        {
          "internalType": "uint256[]",
          "name": "_ownerTokenAmounts",
          "type": "uint256[]"
        },
        {
          "internalType": "bool[]",
          "name": "_ownerTokenTypes",
          "type": "bool[]"
        },
        {
          "internalType": "address[]",
          "name": "_targetAccountTokens",
          "type": "address[]"
        },
        {
          "internalType": "bytes32[]",
          "name": "_targetAccountTokenIds",
          "type": "bytes32[]"
        },
        {
          "internalType": "uint256[]",
          "name": "_targetAccountTokenAmounts",
          "type": "uint256[]"
        },
        {
          "internalType": "bool[]",
          "name": "_targetAccountTokenTypes",
          "type": "bool[]"
        }
      ],
      "name": "createSwap",
      "outputs": [
        {
          "internalType": "uint256",
          "name": "",
          "type": "uint256"
        }
      ],
      "stateMutability": "nonpayable",
      "type": "function"
    },
    {
      "inputs": [
        {
          "internalType": "address",
          "name": "_user",
          "type": "address"
        }
      ],
      "name": "getSwaps",
      "outputs": [
        {
          "components": [
            {
              "internalType": "enum SwapToken.Status",
              "name": "status",
              "type": "uint8"
            },
            {
              "internalType": "string",
              "name": "description",
              "type": "string"
            },
            {
              "internalType": "address",
              "name": "owner",
              "type": "address"
            },
            {
              "internalType": "address",
              "name": "target",
              "type": "address"
            },
            {
              "internalType": "address[]",
              "name": "ownerTokens",
              "type": "address[]"
            },
            {
              "internalType": "bytes32[]",
              "name": "ownerTokenIds",
              "type": "bytes32[]"
            },
            {
              "internalType": "uint256[]",
              "name": "ownerTokenAmounts",
              "type": "uint256[]"
            },
            {
              "internalType": "bool[]",
              "name": "ownerTokenTypes",
              "type": "bool[]"
            },
            {
              "internalType": "address[]",
              "name": "targetAccountTokens",
              "type": "address[]"
            },
            {
              "internalType": "bytes32[]",
              "name": "targetAccountTokenIds",
              "type": "bytes32[]"
            },
            {
              "internalType": "uint256[]",
              "name": "targetAccountTokenAmounts",
              "type": "uint256[]"
            },
            {
              "internalType": "bool[]",
              "name": "targetAccountTokenTypes",
              "type": "bool[]"
            },
            {
              "internalType": "uint256",
              "name": "swapId",
              "type": "uint256"
            }
          ],
          "internalType": "struct SwapToken.Swap[]",
          "name": "",
          "type": "tuple[]"
        }
      ],
      "stateMutability": "view",
      "type": "function"
    },
    {
      "inputs": [],
      "name": "swapCount",
      "outputs": [
        {
          "internalType": "uint256",
          "name": "",
          "type": "uint256"
        }
      ],
      "stateMutability": "view",
      "type": "function"
    },
    {
      "inputs": [
        {
          "internalType": "uint256",
          "name": "",
          "type": "uint256"
        }
      ],
      "name": "swaps",
      "outputs": [
        {
          "internalType": "enum SwapToken.Status",
          "name": "status",
          "type": "uint8"
        },
        {
          "internalType": "string",
          "name": "description",
          "type": "string"
        },
        {
          "internalType": "address",
          "name": "owner",
          "type": "address"
        },
        {
          "internalType": "address",
          "name": "target",
          "type": "address"
        },
        {
          "internalType": "uint256",
          "name": "swapId",
          "type": "uint256"
        }
      ],
      "stateMutability": "view",
      "type": "function"
    },
    {
      "inputs": [
        {
          "internalType": "address",
          "name": "",
          "type": "address"
        }
      ],
      "name": "userSwapCount",
      "outputs": [
        {
          "internalType": "uint256",
          "name": "",
          "type": "uint256"
        }
      ],
      "stateMutability": "view",
      "type": "function"
    },
    {
      "inputs": [
        {
          "internalType": "address",
          "name": "",
          "type": "address"
        },
        {
          "internalType": "uint256",
          "name": "",
          "type": "uint256"
        }
      ],
      "name": "userSwaps",
      "outputs": [
        {
          "internalType": "uint256",
          "name": "",
          "type": "uint256"
        }
      ],
      "stateMutability": "view",
      "type": "function"
    }
  ],
  "bytecode": "0x608060405234801561001057600080fd5b5061218e806100206000396000f3fe608060405234801561001057600080fd5b50600436106100885760003560e01c8063bc5956b01161005b578063bc5956b014610100578063c815729d14610113578063ef706adf14610128578063f09c58291461013b57600080fd5b806321c616da1461008d5780632eff0d9e146100b6578063543aa9fe146100cd57806387d2d3e6146100ed575b600080fd5b6100a061009b3660046118a4565b61015f565b6040516100ad91906119ea565b60405180910390f35b6100bf60005481565b6040519081526020016100ad565b6100bf6100db3660046118a4565b60036020526000908152604090205481565b6100bf6100fb366004611b7f565b610706565b6100bf61010e366004611dbb565b610737565b610126610121366004611f32565b610da4565b005b610126610136366004611f32565b611559565b61014e610149366004611f32565b61166e565b6040516100ad959493929190611f4b565b6001600160a01b0381166000908152600360205260408120546060919067ffffffffffffffff81111561019457610194611ba9565b60405190808252806020026020018201604052801561024357816020015b610230604080516101a0810190915280600081526020016060815260200160006001600160a01b0316815260200160006001600160a01b031681526020016060815260200160608152602001606081526020016060815260200160608152602001606081526020016060815260200160608152602001600081525090565b8152602001906001900390816101b25790505b50905060005b6001600160a01b0384166000908152600360205260409020548110156106ff576001600160a01b0384166000908152600260205260408120805460019291908490811061029857610298611f8f565b90600052602060002001548152602001908152602001600020604051806101a00160405290816000820160009054906101000a900460ff1660028111156102e1576102e16118c6565b60028111156102f2576102f26118c6565b815260200160018201805461030690611fa5565b80601f016020809104026020016040519081016040528092919081815260200182805461033290611fa5565b801561037f5780601f106103545761010080835404028352916020019161037f565b820191906000526020600020905b81548152906001019060200180831161036257829003601f168201915b505050918352505060028201546001600160a01b039081166020808401919091526003840154909116604080840191909152600484018054825181850281018501909352808352606090940193919290919083018282801561040a57602002820191906000526020600020905b81546001600160a01b031681526001909101906020018083116103ec575b505050505081526020016005820180548060200260200160405190810160405280929190818152602001828054801561046257602002820191906000526020600020905b81548152602001906001019080831161044e575b50505050508152602001600682018054806020026020016040519081016040528092919081815260200182805480156104ba57602002820191906000526020600020905b8154815260200190600101908083116104a6575b505050505081526020016007820180548060200260200160405190810160405280929190818152602001828054801561053257602002820191906000526020600020906000905b825461010083900a900460ff1615158152602060019283018181049485019490930390920291018084116105015790505b505050505081526020016008820180548060200260200160405190810160405280929190818152602001828054801561059457602002820191906000526020600020905b81546001600160a01b03168152600190910190602001808311610576575b50505050508152602001600982018054806020026020016040519081016040528092919081815260200182805480156105ec57602002820191906000526020600020905b8154815260200190600101908083116105d8575b50505050508152602001600a820180548060200260200160405190810160405280929190818152602001828054801561064457602002820191906000526020600020905b815481526020019060010190808311610630575b50505050508152602001600b82018054806020026020016040519081016040528092919081815260200182805480156106bc57602002820191906000526020600020906000905b825461010083900a900460ff16151581526020600192830181810494850194909303909202910180841161068b5790505b50505050508152602001600c820154815250508282815181106106e1576106e1611f8f565b602002602001018190525080806106f790611fdf565b915050610249565b5092915050565b6002602052816000526040600020818154811061072257600080fd5b90600052602060002001600091509150505481565b600087518951146107b55760405162461bcd60e51b815260206004820152603b60248201527f5f6f776e6572546f6b656e7320616e64205f6f776e6572546f6b656e4964732060448201527f73686f756c642068617665207468652073616d65206c656e677468000000000060648201526084015b60405180910390fd5b865189511461082c5760405162461bcd60e51b815260206004820152603f60248201527f5f6f776e6572546f6b656e7320616e64205f6f776e6572546f6b656e416d6f7560448201527f6e74732073686f756c642068617665207468652073616d65206c656e6774680060648201526084016107ac565b85518951146108a35760405162461bcd60e51b815260206004820152603d60248201527f5f6f776e6572546f6b656e7320616e64205f6f776e6572546f6b656e5479706560448201527f732073686f756c642068617665207468652073616d65206c656e67746800000060648201526084016107ac565b88516000036108f45760405162461bcd60e51b815260206004820181905260248201527f5f6f776e6572546f6b656e732073686f756c64206e6f7420626520656d70747960448201526064016107ac565b835185511461097f5760405162461bcd60e51b815260206004820152604b60248201527f5f7461726765744163636f756e74546f6b656e7320616e64205f74617267657460448201527f4163636f756e74546f6b656e4964732073686f756c642068617665207468652060648201526a0e6c2daca40d8cadccee8d60ab1b608482015260a4016107ac565b8251855114610a0e5760405162461bcd60e51b815260206004820152604f60248201527f5f7461726765744163636f756e74546f6b656e7320616e64205f74617267657460448201527f4163636f756e74546f6b656e416d6f756e74732073686f756c6420686176652060648201526e0e8d0ca40e6c2daca40d8cadccee8d608b1b608482015260a4016107ac565b8151855114610a9b5760405162461bcd60e51b815260206004820152604d60248201527f5f7461726765744163636f756e74546f6b656e7320616e64205f74617267657460448201527f4163636f756e74546f6b656e54797065732073686f756c64206861766520746860648201526c0ca40e6c2daca40d8cadccee8d609b1b608482015260a4016107ac565b8451600003610afd5760405162461bcd60e51b815260206004820152602860248201527f5f7461726765744163636f756e74546f6b656e732073686f756c64206e6f7420604482015267626520656d70747960c01b60648201526084016107ac565b60008054604080516101a08101909152909190808281526020018e8152602001336001600160a01b031681526020018d6001600160a01b031681526020018c81526020018b81526020018a8152602001898152602001888152602001878152602001868152602001858152602001838152509050806001600084815260200190815260200160002060008201518160000160006101000a81548160ff02191690836002811115610baf57610baf6118c6565b021790555060208201516001820190610bc89082612055565b5060408201516002820180546001600160a01b039283166001600160a01b031991821617909155606084015160038401805491909316911617905560808201518051610c1e916004840191602090910190611737565b5060a08201518051610c3a91600584019160209091019061179c565b5060c08201518051610c5691600684019160209091019061179c565b5060e08201518051610c729160078401916020909101906117d7565b506101008201518051610c8f916008840191602090910190611737565b506101208201518051610cac91600984019160209091019061179c565b506101408201518051610cc991600a84019160209091019061179c565b506101608201518051610ce691600b8401916020909101906117d7565b506101809190910151600c909101556001600160a01b038c166000908152600260209081526040822080546001810182559083529082200183905580549080610d2e83611fdf565b90915550506001600160a01b038c166000908152600360205260408120805491610d5783611fdf565b9091555050604080518381523360208201527feb099169dde61d427e290ef06696446515199753a50deff6414c7220d7fbb5cf910160405180910390a1509b9a5050505050505050505050565b60008181526001602052604090206003015481906001600160a01b03163314610e055760405162461bcd60e51b815260206004820152601360248201527213db9b1e481d185c99d95d08105b1b1bddd959606a1b60448201526064016107ac565b60008281526001602052604081205460ff166002811115610e2857610e286118c6565b14610e685760405162461bcd60e51b815260206004820152601060248201526f43616e277420616363657074206e6f7760801b60448201526064016107ac565b600082815260016020908152604080832060038101546002820154600890920180548451818702810187019095528085526001600160a01b039283169692909316949193929091830182828015610ee857602002820191906000526020600020905b81546001600160a01b03168152600190910190602001808311610eca575b50505050509050600060016000878152602001908152602001600020600901805480602002602001604051908101604052809291908181526020018280548015610f5157602002820191906000526020600020905b815481526020019060010190808311610f3d575b50505050509050600060016000888152602001908152602001600020600a01805480602002602001604051908101604052809291908181526020018280548015610fba57602002820191906000526020600020905b815481526020019060010190808311610fa6575b50505050509050600060016000898152602001908152602001600020600b0180548060200260200160405190810160405280929190818152602001828054801561104357602002820191906000526020600020906000905b825461010083900a900460ff1615158152602060019283018181049485019490930390920291018084116110125790505b5050505050905060005b84518110156111bb5781818151811061106857611068611f8f565b6020026020010151156111115784818151811061108757611087611f8f565b60200260200101516001600160a01b031663511b695288888785815181106110b1576110b1611f8f565b602002602001015160016040518563ffffffff1660e01b81526004016110da9493929190612115565b600060405180830381600087803b1580156110f457600080fd5b505af1158015611108573d6000803e3d6000fd5b505050506111a9565b84818151811061112357611123611f8f565b60200260200101516001600160a01b031663760d9bba888886858151811061114d5761114d611f8f565b602002602001015160016040518563ffffffff1660e01b81526004016111769493929190612115565b600060405180830381600087803b15801561119057600080fd5b505af11580156111a4573d6000803e3d6000fd5b505050505b806111b381611fdf565b91505061104d565b5060008881526001602090815260408083206004018054825181850281018501909352808352919290919083018282801561121f57602002820191906000526020600020905b81546001600160a01b03168152600190910190602001808311611201575b505050505090506000600160008b815260200190815260200160002060050180548060200260200160405190810160405280929190818152602001828054801561128857602002820191906000526020600020905b815481526020019060010190808311611274575b505050505090506000600160008c81526020019081526020016000206006018054806020026020016040519081016040528092919081815260200182805480156112f157602002820191906000526020600020905b8154815260200190600101908083116112dd575b505050505090506000600160008d815260200190815260200160002060070180548060200260200160405190810160405280929190818152602001828054801561137a57602002820191906000526020600020906000905b825461010083900a900460ff1615158152602060019283018181049485019490930390920291018084116113495790505b5050505050905083516000146114fd5760005b84518110156114fb578181815181106113a8576113a8611f8f565b602002602001015115611451578481815181106113c7576113c7611f8f565b60200260200101516001600160a01b031663511b69528b8d8785815181106113f1576113f1611f8f565b602002602001015160016040518563ffffffff1660e01b815260040161141a9493929190612115565b600060405180830381600087803b15801561143457600080fd5b505af1158015611448573d6000803e3d6000fd5b505050506114e9565b84818151811061146357611463611f8f565b60200260200101516001600160a01b031663760d9bba8b8d86858151811061148d5761148d611f8f565b602002602001015160016040518563ffffffff1660e01b81526004016114b69493929190612115565b600060405180830381600087803b1580156114d057600080fd5b505af11580156114e4573d6000803e3d6000fd5b505050505b806114f381611fdf565b91505061138d565b505b60008c815260016020818152604092839020805460ff191690921790915590518d81527f7080e652b0056fb27597071d591828292afd96fd17bc428ff26dfcca4acc5230910160405180910390a1505050505050505050505050565b60008181526001602052604090206003015481906001600160a01b031633146115ba5760405162461bcd60e51b815260206004820152601360248201527213db9b1e481d185c99d95d08105b1b1bddd959606a1b60448201526064016107ac565b60008281526001602052604081205460ff1660028111156115dd576115dd6118c6565b1461161d5760405162461bcd60e51b815260206004820152601060248201526f43616e27742063616e63656c206e6f7760801b60448201526064016107ac565b600082815260016020908152604091829020805460ff1916600217905590518381527ff6b6b4f7a13f02512c1b3aa8dcc4a07d7775a6a4becbd439efcbd37c5408e67f910160405180910390a15050565b60016020819052600091825260409091208054918101805460ff9093169261169590611fa5565b80601f01602080910402602001604051908101604052809291908181526020018280546116c190611fa5565b801561170e5780601f106116e35761010080835404028352916020019161170e565b820191906000526020600020905b8154815290600101906020018083116116f157829003601f168201915b5050505060028301546003840154600c9094015492936001600160a01b03918216939116915085565b82805482825590600052602060002090810192821561178c579160200282015b8281111561178c57825182546001600160a01b0319166001600160a01b03909116178255602090920191600190910190611757565b50611798929150611873565b5090565b82805482825590600052602060002090810192821561178c579160200282015b8281111561178c5782518255916020019190600101906117bc565b82805482825590600052602060002090601f0160209004810192821561178c5791602002820160005b8382111561183d57835183826101000a81548160ff0219169083151502179055509260200192600101602081600001049283019260010302611800565b801561186a5782816101000a81549060ff021916905560010160208160000104928301926001030261183d565b50506117989291505b5b808211156117985760008155600101611874565b80356001600160a01b038116811461189f57600080fd5b919050565b6000602082840312156118b657600080fd5b6118bf82611888565b9392505050565b634e487b7160e01b600052602160045260246000fd5b600381106118fa57634e487b7160e01b600052602160045260246000fd5b9052565b6000815180845260005b8181101561192457602081850181015186830182015201611908565b506000602082860101526020601f19601f83011685010191505092915050565b600081518084526020808501945080840160005b8381101561197d5781516001600160a01b031687529582019590820190600101611958565b509495945050505050565b600081518084526020808501945080840160005b8381101561197d5781518752958201959082019060010161199c565b600081518084526020808501945080840160005b8381101561197d5781511515875295820195908201906001016119cc565b60006020808301818452808551808352604092508286019150828160051b87010184880160005b83811015611b7157603f1989840301855281516101a0611a328583516118dc565b88820151818a870152611a47828701826118fe565b91505087820151611a62898701826001600160a01b03169052565b506060828101516001600160a01b03169086015260808083015186830382880152611a8d8382611944565b9250505060a08083015186830382880152611aa88382611988565b9250505060c08083015186830382880152611ac38382611988565b9250505060e08083015186830382880152611ade83826119b8565b925050506101008083015186830382880152611afa8382611944565b925050506101208083015186830382880152611b168382611988565b925050506101408083015186830382880152611b328382611988565b925050506101608083015186830382880152611b4e83826119b8565b610180948501519790940196909652505094870194925090860190600101611a11565b509098975050505050505050565b60008060408385031215611b9257600080fd5b611b9b83611888565b946020939093013593505050565b634e487b7160e01b600052604160045260246000fd5b604051601f8201601f1916810167ffffffffffffffff81118282101715611be857611be8611ba9565b604052919050565b600082601f830112611c0157600080fd5b813567ffffffffffffffff811115611c1b57611c1b611ba9565b611c2e601f8201601f1916602001611bbf565b818152846020838601011115611c4357600080fd5b816020850160208301376000918101602001919091529392505050565b600067ffffffffffffffff821115611c7a57611c7a611ba9565b5060051b60200190565b600082601f830112611c9557600080fd5b81356020611caa611ca583611c60565b611bbf565b82815260059290921b84018101918181019086841115611cc957600080fd5b8286015b84811015611ceb57611cde81611888565b8352918301918301611ccd565b509695505050505050565b600082601f830112611d0757600080fd5b81356020611d17611ca583611c60565b82815260059290921b84018101918181019086841115611d3657600080fd5b8286015b84811015611ceb5780358352918301918301611d3a565b600082601f830112611d6257600080fd5b81356020611d72611ca583611c60565b82815260059290921b84018101918181019086841115611d9157600080fd5b8286015b84811015611ceb5780358015158114611dae5760008081fd5b8352918301918301611d95565b6000806000806000806000806000806101408b8d031215611ddb57600080fd5b8a3567ffffffffffffffff80821115611df357600080fd5b611dff8e838f01611bf0565b9b50611e0d60208e01611888565b9a5060408d0135915080821115611e2357600080fd5b611e2f8e838f01611c84565b995060608d0135915080821115611e4557600080fd5b611e518e838f01611cf6565b985060808d0135915080821115611e6757600080fd5b611e738e838f01611cf6565b975060a08d0135915080821115611e8957600080fd5b611e958e838f01611d51565b965060c08d0135915080821115611eab57600080fd5b611eb78e838f01611c84565b955060e08d0135915080821115611ecd57600080fd5b611ed98e838f01611cf6565b94506101008d0135915080821115611ef057600080fd5b611efc8e838f01611cf6565b93506101208d0135915080821115611f1357600080fd5b50611f208d828e01611d51565b9150509295989b9194979a5092959850565b600060208284031215611f4457600080fd5b5035919050565b611f5581876118dc565b60a060208201526000611f6b60a08301876118fe565b6001600160a01b039586166040840152939094166060820152608001529392505050565b634e487b7160e01b600052603260045260246000fd5b600181811c90821680611fb957607f821691505b602082108103611fd957634e487b7160e01b600052602260045260246000fd5b50919050565b600060018201611fff57634e487b7160e01b600052601160045260246000fd5b5060010190565b601f82111561205057600081815260208120601f850160051c8101602086101561202d5750805b601f850160051c820191505b8181101561204c57828155600101612039565b5050505b505050565b815167ffffffffffffffff81111561206f5761206f611ba9565b6120838161207d8454611fa5565b84612006565b602080601f8311600181146120b857600084156120a05750858301515b600019600386901b1c1916600185901b17855561204c565b600085815260208120601f198616915b828110156120e7578886015182559484019460019091019084016120c8565b50858210156121055787850151600019600388901b60f8161c191681555b5050505050600190811b01905550565b6001600160a01b0394851681529290931660208301526040820152901515606082015260a06080820181905260029082015261060f60f31b60c082015260e0019056fea2646970667358221220ef557ec270a4f5cae7b01f435241cded7c54caa3017dd7d65a0f32c51ca131ba64736f6c63430008140033",
  "linkReferences": {},
  "deployedLinkReferences": {}
}